:1000000000800020BD010000697D0000217D00000E
:10001000217D0000217D0000217D0000217D000068
:10002000217D0000217D0000217D0000697D000010
:10003000697D0000217D0000899500008D950000FC
:10004000697D0000697D0000697D0000697D000018
:10005000697D0000697D0000697D0000697D000008
:10006000697D0000697D0000697D0000697D0000F8
:10007000697D0000697D0000697D0000697D0000E8
:10008000697D0000697D0000697D0000697D0000D8
:10009000697D0000697D0000697D0000697D0000C8
:1000A000517400005D740000697D0000697D0000EE
:1000B000697D0000697D0000697D0000697D0000A8
:1000C000697D0000697D0000697D0000697D000098
:1000D000697D0000697D0000697D0000697D000088
:1000E000697D0000697D0000697D0000697D000078
:1000F000697D0000697D0000697D0000697D000068
:10010000697D0000697D0000697D0000697D000057
:10011000697D0000697D0000697D0000697D000047
:10012000697D0000697D0000697D0000697D000037
:10013000697D0000697D0000697D0000697D000027
:10014000697D0000697D0000697D0000697D000017
:10015000697D0000697D0000697D0000697D000007
:10016000AD6B000059850000697D0000697D0000CD
:10017000697D0000697D0000697D0000697D0000E7
:10018000697D0000697D0000697D0000697D0000D7
:10019000697D0000697D0000697D0000697D0000C7
:1001A000697D0000697D0000697D0000697D0000B7
:1001B000697D0000697D0000697D0000564B4CF2AE
:1001C000205210B51A804DF628121A8000BF00BFC9
:1001D00007F0CEFD514B4FF010621A60504A9A6002
:1001E000504ADA60504A136813F4807304D14F49BF
:1001F0000B604FF4A85313604D4B1A78110703D5C9
:100200001A7842F008021A704A4B4B492A221A7097
:100210004A4A4B4B8B4204D252F8040F43F8040B6A
:10022000F8E7484B484900228B4202D243F8042B9E
:10023000FAE74649464A002352F8230041F82300D2
:1002400001336F2BF8D1434B434A802103F8011B44
:100250009342FBD1414B3D4A1A60414B8A221A70AE
:10026000A3F5805324225A70A0221A709A7992071B
:10027000FCD59A79D406FCD43A4A937903F00C035E
:10028000082B384BF9D105221A7143225A719A79F9
:100290009006FCD5334A9179324B4906FBD5324A58
:1002A0004FF0817111600521516020221A709A79F6
:1002B00002F00C020C2AFAD12C4B2D4A1A602D4B5D
:1002C0002D4A1A6000225A60072243F8042C2B4A58
:1002D000C3F80C2D62B607F0F5FF144B1B68DA0764
:1002E00005D5274807F082FE264B274A1A60274B80
:1002F0001B785B0609D5234C234B22689A4204D114
:100300001F4807F073FE002323600BF02DFB07F05E
:1003100035FD07F063FCFEE70E2005403080044009
:10032000823F04000100002B10D0034014D0034092
:1003300002D0074000E00740BC92FF1FD4D000006D
:100340002087FF1FC092FF1FBC9CFF1F0082FF1F62
:100350000000000000E400E05FE400E008ED00E0E1
:1003600000500640004006404480044004800440A1
:10037000C010050014E000E03F190100000020203B
:100380000D044C621CE00340A5C3945A00F00740E2
:10039000FFFFFFFFFFFFFFFFFFFFFFFFFFFFFFFF6D
:1003A000FFFFFFFFFFFFFFFFFFFFFFFFFFFFFFFF5D
:1003B000FFFFFFFFFFFFFFFFFFFFFFFFFFFFFFFF4D
:1003C000FFFFFFFFFFFFFFFFFFFFFFFFFFFFFFFF3D
:1003D000FFFFFFFFFFFFFFFFFFFFFFFFFFFFFFFF2D
:1003E000FFFFFFFFFFFFFFFFFFFFFFFFFFFFFFFF1D
:1003F000FFFFFFFFFFFFFFFFFFFFFFFFFFFFFFFF0D
:10040000FFFFFFFFFFFFFFFFFFFFFFFFDEF9FFFF23
:1004100010B5054C237833B9044B13B10448AFF33E
:1004200000800123237010BDC092FF1F0000000058
:10043000D8D00000084B10B51BB108490848AFF3ED
:1004400000800848036803B910BD074B002BFBD0A0
:10045000BDE81040184700BF00000000C492FF1F15
:10046000D8D00000BC92FF1F0000000043680B7052
:1004700043681B0A4B70C3888B70C379CB70836849
:100480000B7183681B0A4B7143898B71C37ACB71E3
:10049000082070470B7843604A7843EA02234360A0
:1004A0008A7843EA02434360CA7843EA02634360BE
:1004B0000B7983604A7943EA022383608A7943EAAD
:1004C00002438360CA7943EA02638360082070476D
:1004D0000048704798C9000000487047A8C900004C
:1004E000F0B50C460A788280064614F8010F002306
:1004F00042EA0022B2801A4614F8010F98400833ED
:10050000202B42EA0002F7D1971D062F58D901F19E
:10051000050E551D73464C1913F8010F03F8010C15
:10052000A342F9D100234B5518460D44C6F808E004
:1005300015F8014F84400830202843EA0403F7D11E
:10054000381D0344834209D909320A440446013460
:1005500012F8015F02F8015CA342F8D80138CF1805
:100560000024084407F8014C2246F06017F8015BAC
:1005700095400832202A44EA0504F7D1181D0444A6
:10058000A04209D203330B440246013213F8015F43
:1005900003F8015CA242F8D30D1901380844002386
:1005A00005F8013C3061A8786B780A5DED780104AC
:1005B00041EA0323134343EA0563201D7361F0BD41
:1005C000551D01F1050EADE700487047CCC900008C
:1005D00000487047E8C900000B78F0B403710023AD
:1005E00006460C461D4614F8012F9A400833202B6E
:1005F00045EA0205F7D1681D052801F1040708D96D
:100600002C1D3B460C4413F8012F03F8012C9C428F
:10061000F9D10D4400232B71B760F0BC704700BFC7
:10062000004870470CCA00000048704720CA00000C
:1006300000487047C0CC00000048704744CA000022
:1006400043680B701A0C10B41C0A1B0E4C708A7095
:10065000CB7083680B711C0A1A0C1B0E4C718A71CB
:10066000CB71C3680B72180A1A0C1B0E48728A727F
:100670000C20CB7210BC70470B6843604B688360E2
:100680008B68C3600C2070470048704768CA000040
:100690000048704780CA000000487047A4CA0000A4
:1006A00000487047BCCA000000487047E0CA00001C
:1006B00000487047F4CA000043680B701A0C10B46D
:1006C0001C0A1B0E4C708A70CB7083680B711C0A5D
:1006D0001A0C1B0E4C718A71CB71C3680B72180A0D
:1006E0001A0C1B0E48728A720C20CB7210BC704719
:1006F0000B6843604B6883608B68C3600C20704755
:100700000048704718CB00000048704728CB000015
:10071000004870474CCB0000004870475CCB00009D
:10072000F0B50A4B0A4F1B680A4D0B498668C4682E
:10073000026A2E6083B00C600193DDF804E0074B81
:10074000C7F800E01A6003B0F0BD00BF4C9BFF1F6C
:100750007093FF1F709AFF1F749AFF1F9499FF1FD9
:1007600090F8F804704700BF006A7047004870476F
:1007700018CB00000048704728CB0000406B704742
:1007800000487047E0CA000000487047F4CA000003
:1007900008F0F8BC43682DE9F0470B7043681B0A6A
:1007A0004B70C3888B70C379CB704368002B00F00B
:1007B00085800A4600250426C36853F82530137146
:1007C0001C0C1F0A1B0E94715771D37143680135BD
:1007D000AB42344602F1040206F10406ECD804F1FF
:1007E000080204F1050A04F1060904F1070804F1FE
:1007F000090C04F10A0E04F10B0517460C340369C9
:100800008B5503691B0A01F80A30438A01F8093045
:10081000C37C01F808300369F3B101EB070E75469C
:100820000022836953F822300EF822301C0C1E0A75
:100830001B0EAC706E70EB700369013293423C4644
:1008400005F1040507F10407EBD804F1050C04F1E8
:10085000060EE51D3A460834C3698B54C3691B0A6A
:1008600001F80C30C38B01F80E30C37F4B55C369C0
:100870000BB30F4680460026D8F8243053F82600E4
:100880000BF07EFDB10005463A19002325FA03F06E
:100890000833202B02F8010BF8D1D8F824300434A7
:1008A000381959582A4607F0A1F9D8F81C300136F2
:1008B000B3422C44E0D82046BDE8F0870822174612
:1008C0000C240B254FF00A0E4FF0090C4FF00708CF
:1008D0004FF006094FF0050A042690E770B503793A
:1008E0000B70064680680D460BF04AFD2A4604460A
:1008F000002324FA03F10833202B02F8011FF8D15A
:10090000B168681D224607F071F9601D70BD00BF17
:10091000F8B583880B7083881B0A4B700646806885
:100920000D460BF02DFD030E010A020C6B71A87031
:100930002A71E97002460446B168A81D07F056F90D
:10094000F0680BF01DFD611D0246294406340023AA
:1009500022FA03F00833202B01F8010FF8D10434F8
:100960002819F168144407F041F930690BF008FDCB
:100970002A190746002327FA03F10833202B02F82F
:10098000011BF8D1043428193A46316907F02EF9D1
:10099000381973692B540544190A1A0C1B0E697017
:1009A000AA70EB700430F8BD084608F0D5BC00BF53
:1009B0002DE9F04F43680C689C4283B005460E4613
:1009C00000F2B3806C60002C00F0B88005F1080CD8
:1009D000334600274FF0040E9C795A79197993F821
:1009E0000780E868240444EA02220A4342EA0862D3
:1009F000AA60DCF8002040F827206A680137BA4274
:100A0000714603F104030EF1040EE5D801F1080864
:100A100047464B1D881DCA1D01F1090A01F10A0B49
:100A200001F10B0901F10C04305CF35C16F80E10B7
:100A300016F802E02A69000440EA03230B4343EA64
:100A40000E63934200F290802B613BB305F1140CCE
:100A5000F3194FF0000E9C785A78197893F80380B8
:100A6000A869240444EA02220A4342EA08626A614D
:100A7000DCF8002040F82E202A690EF1010E7245A4
:100A80003C4603F1040307F10407E4D804F1050A26
:100A900004F1060B04F10709B846083416F80B20D8
:100AA00016F80A0016F8083016F80970E9691204F9
:100AB00042EA0022134343EA07678F424ED8EF61B0
:100AC0007FB30027BC4605F1200E002319463019DC
:100AD00010F8012B9A400833202B41EA0201F7D18C
:100AE00004F104084144884509D2E31C33444246DA
:100AF000013213F8010F03F8010C8A42F8D372187F
:100B000008F1FF3802F801CC06EB08032B626A6A91
:100B1000DEF8003042F82730EB690137BB420C4663
:100B2000D3D8204603B0BDE8F08FA100C0680BF019
:100B300007FA6C60E860002C7FF448AF4FF00808BB
:100B400047460C244FF00B094FF00A0B4FF0090AEF
:100B50000722062005234FF0040E65E7B900686AF6
:100B60000BF0EEF96862AAE79900A86901930BF00F
:100B7000E7F9019BA86167E710B504460C48A36834
:100B8000E268616807F026F8A368E26861680948CE
:100B900007F020F8A368E2686168074807F01AF8D0
:100BA000A368E26861680548BDE8104007F012B824
:100BB000E099FF1F289AFF1F8093FF1FF093FF1FEC
:100BC0000B6803614B6843618B688361C3690C30B8
:100BD000184700BFF8B506464068C0F3C7520C4638
:100BE0000346002A58D002F56072110149B2C2F3DF
:100BF0000715C3F3C34211435F010022A171D9104D
:100C0000DB12217122706270A270E77063710021A3
:100C10000AF056FE002848D1E571B068C0F3C7520B
:100C20000346002A3ED002F56072110149B2C2F3B8
:100C30000715C3F3C34211435F010022A173D9100A
:100C4000DB12217322726272A272E7726373002157
:100C50000AF036FE90BBE573F068C0F3C752034656
:100C6000EAB102F56072110149B2C2F30715C3F38C
:100C7000C34211435F010022DE10DB12A175227412
:100C80006274A274E7742675637500210AF018FE79
:100C900078B9E5751820F8BD15461146A9E715463F
:100CA0001146E4E715461146C3E765F07F02E2719D
:100CB000B3E765F07F02E2751820F8BD65F07F02AA
:100CC000E273C9E7CA78520970B4426103460879F1
:100CD00042EAC0025A61487942EAC02058618A79E2
:100CE000D20402F4F00202435A61CD798E792C01CC
:100CF00004F4FE6454EA161403F10C0005D0A4F5C4
:100D0000607442EAC4525A61CD7925F07F0542EA07
:100D100005625A61CA7A52099A610C7B42EAC4029E
:100D20009A614C7B42EAC4249C618A7BD20402F41F
:100D3000F00222439A61CD7B8E7B2C0104F4FE6489
:100D400054EA161405D0A4F5607442EAC4529A61BC
:100D5000CD7B25F07F0542EA05629A61CA7C520983
:100D6000DA610C7D42EAC402DA614C7D42EAC424B5
:100D7000DC618A7DD20402F4F0022243DA61CD7D87
:100D80008E7D2C0104F4FE6454EA161405D0A4F5FB
:100D9000607442EAC452DA61CD7D25F07F0542EAF3
:100DA0000562DA61CA7E52095A620C7F42EAC402C5
:100DB0005A624C7F42EAC4245C628A7FD20402F405
:100DC000F00222435A62CD7F8E7F2C0104F4FE6430
:100DD00054EA161405D0A4F5607442EAC4525A626B
:100DE000CD7F25F07F0542EA05625A6291F8232003
:100DF00052099A6291F8244042EAC4029A6291F838
:100E0000254042EAC4249C6291F82620D20402F4D0
:100E1000F00222439A6291F8275091F826602C0143
:100E200004F4FE6454EA161406D0A4F5607442EA91
:100E3000C4529A6291F8275025F07F0542EA056274
:100E40009A6291F82B205209DA6291F82C4042EA1A
:100E5000C402DA6291F82D4042EAC424DC6291F8BF
:100E60002E20D20402F4F0022243DA6291F82F50CD
:100E700091F82E602C0104F4FE6454EA161406D096
:100E8000A4F5607442EAC452DA6291F82F5025F05A
:100E90007F0542EA0562DA6270BC1B6B184700BF2F
:100EA000CB785B0930B483600A7943EAC20383607C
:100EB0004A7943EAC22282608B79DB0403F4F003AF
:100EC00013438360CC798D79220102F4FE6252EAE9
:100ED000151205D0A2F5607243EAC2538360CC7943
:100EE00024F07F0443EA04638360CB7A5B09C36028
:100EF0000A7B43EAC203C3604A7B43EAC222C26060
:100F00008B7BDB0403F4F0031343C360CC7B8D7B4A
:100F1000220102F4FE6252EA151205D0A2F56072B7
:100F200043EAC253C360CC7B24F07F0443EA0463EA
:100F3000C360CB7C5B0903610A7D43EAC2030361A2
:100F40004A7D43EAC22202618B7DDB0403F4F00395
:100F500013430361CC7D8D7D220102F4FE6252EACF
:100F6000151205D0A2F5607243EAC2530361CC7D2D
:100F700024F07F0443EA04630361CB7E5B09836151
:100F80000A7F43EAC20383614A7F43EAC222826145
:100F90008B7FDB0403F4F00313438361CC7F8D7FED
:100FA000220102F4FE6252EA151205D0A2F5607227
:100FB00043EAC2538361CC7F24F07F0443EA046395
:100FC000836191F823305B09C36191F8242043EADF
:100FD000C203C36191F8252043EAC222C26191F89D
:100FE0002630DB0403F4F0031343C36191F8274078
:100FF00091F82650220102F4FE6252EA151206D040
:10100000A2F5607243EAC253C36191F8274024F00D
:101010007F0443EA0463C36191F82B305B090362E8
:1010200091F82C2043EAC203036291F82D2043EA91
:10103000C222026291F82E30DB0403F4F003134362
:10104000036291F82F4091F82E50220102F4FE62C3
:1010500052EA151206D0A2F5607243EAC253036247
:1010600091F82F4024F07F0443EA0463036230BC0C
:1010700030207047CB785B0930B443600A7943EA8B
:10108000C20343604A7943EAC22242608B79DB049F
:1010900003F4F00313434360CC798D79220102F409
:1010A000FE6252EA151205D0A2F5607243EAC253FD
:1010B0004360CC7924F07F0443EA04634360CB7A35
:1010C0005B0983600A7B43EAC20383604A7B43EA8D
:1010D000C22282608B7BDB0403F4F0031343836042
:1010E000CC7B8D7B220102F4FE6252EA151205D000
:1010F000A2F5607243EAC2538360CC7B24F07F0484
:1011000043EA04638360CB7C5B09C3600A7D43EAE6
:10111000C203C3604A7D43EAC222C2608B7DDB0406
:1011200003F4F0031343C360CC7D8D7D220102F4F0
:10113000FE6252EA151205D0A2F5607243EAC2536C
:10114000C360CC7D24F07F0443EA0463C36030BCF9
:1011500018207047F8B505468068C0F3C7520C46A2
:101160000346002A00F0CF8002F56072110149B2F7
:10117000C2F30716C3F3C34211435F010022A171FA
:10118000D910DB12217122706270A270E770637156
:1011900000210AF095FB002840F0C780E671E8685E
:1011A000C0F3C7520346002A00F0BC8002F560720B
:1011B000110149B2C2F30716C3F3C34211435F01E1
:1011C0000022A173D910DB12217322726272A27203
:1011D000E772637300210AF073FB002840F0BC80C3
:1011E000E6732869C0F3C7520346002A00F09780CF
:1011F00002F56072110149B2C2F30716C3F3C3428C
:1012000011435F010022A175D910DB1221752274F0
:101210006274A274E774637500210AF051FB002820
:1012200040F09680E675A869C0F3C7520346002ACD
:1012300072D002F56072110149B2C2F30716C3F30E
:10124000C34211435F010022A177D910DB1221773D
:1012500022766276A276E776637700210AF030FB89
:10126000002871D1E677E869C0F3C7520346002A27
:101270004FD002F56072110149B2C2F30716C3F3F1
:10128000C34211435F01002284F82610D910DB12FB
:1012900084F8241084F8202084F8212084F8222067
:1012A00084F8237084F8253000210AF009FB002817
:1012B00045D184F82760286AC0F3C75203462AB391
:1012C00002F56072110149B2C2F30715C3F3C342BC
:1012D00011435F010022DE10DB1284F82E1084F827
:1012E000282084F8292084F82A2084F82B7084F898
:1012F0002C6084F82D3000210AF0E2FAC8B984F895
:101300002F503020F8BD1646114633E715461146DA
:10131000DCE716461146B2E7164611468FE7164639
:1013200011466BE71646114646E766F07F02E2710A
:1013300035E765F07F0284F82F203020F8BD66F095
:101340007F0284F82720B6E766F07F02E2778AE71B
:1013500066F07F02E27566E766F07F02E27340E7BF
:10136000F8B505468068C0F3C7520C460346002A0C
:1013700000F04D8102F56072110149B2C2F3071607
:10138000C3F3C34211435F010022A171D910DB12E4
:10139000217122706270A270E770637100210AF0FF
:1013A0008FFA002840F04E81E671E868C0F3C7521A
:1013B0000346002A00F0438102F56072110149B230
:1013C000C2F30716C3F3C34211435F010022A173A6
:1013D000D910DB12217322726272A272E7726373F8
:1013E00000210AF06DFA002840F05281E673286966
:1013F000C0F3C7520346002A00F01E8102F5607256
:10140000110149B2C2F30716C3F3C34211435F018E
:101410000022A175D910DB12217522746274A274A6
:10142000E774637500210AF04BFA002840F02C8124
:10143000E675A869C0F3C7520346002A00F0F98098
:1014400002F56072110149B2C2F30716C3F3C34239
:1014500011435F010022A177D910DB122177227698
:101460006276A276E776637700210AF029FA0028EF
:1014700040F00681E677E869C0F3C7520346002AC8
:1014800000F0D48002F56072110149B2C2F3071670
:10149000C3F3C34211435F01002284F82610D91020
:1014A000DB1284F8241084F8202084F8212084F8AA
:1014B000222084F8237084F8253000210AF000FAF5
:1014C000002840F0D88084F82760286AC0F3C7520B
:1014D0000346002A00F0A78002F56072110149B2AC
:1014E000C2F30716C3F3C34211435F01002284F81D
:1014F0002E10D910DB1284F82C1084F8282084F8E0
:10150000292084F82A2084F82B7084F82D300021BB
:101510000AF0D6F9002840F0A98084F82F60A86A64
:10152000C0F3C7520346002A7AD002F56072110157
:1015300049B2C2F30716C3F3C34211435F0100224D
:1015400084F83610D910DB1284F8341084F8302077
:1015500084F8312084F8322084F8337084F83530F0
:1015600000210AF0ADF900287BD184F83760E86AE1
:10157000C0F3C7520346002A4FD002F56072110132
:1015800049B2C2F30716C3F3C34211435F010022FD
:1015900084F83E10D910DB1284F83C1084F838200F
:1015A00084F8392084F83A2084F83B7084F83D3080
:1015B00000210AF085F900284ED184F83F60286B9D
:1015C000C0F3C75203462AB302F56072110149B253
:1015D000C2F30715C3F3C34211435F010022DE10BB
:1015E000DB1284F8461084F8402084F8412084F807
:1015F000422084F8437084F8446084F84530002128
:101600000AF05EF910BB84F847504820F8BD164632
:101610001146B5E615461146DCE716461146B2E717
:101620001646114687E7164611465BE716461146F1
:101630002EE71646114609E716461146E4E6164619
:101640001146BFE666F07F02E271AEE665F07F020A
:1016500084F847204820F8BD66F07F0284F83F20D8
:10166000ADE766F07F0284F8372080E766F07F02FE
:1016700084F82F2053E766F07F0284F8272024E7C0
:1016800066F07F02E277F6E666F07F02E275D0E66A
:1016900066F07F02E273AAE6CB785B0930B4836020
:1016A0000A7943EAC20383604A7943EAC22282602C
:1016B0008B79DB0403F4F00313438360CC798D79D9
:1016C000220102F4FE6252EA151205D0A2F5607200
:1016D00043EAC2538360CC7924F07F0443EA046375
:1016E0008360CB7A5B09C3600A7B43EAC203C360B1
:1016F0004A7B43EAC222C2608B7BDB0403F4F00323
:101700001343C360CC7B8D7B220102F4FE6252EA5C
:10171000151205D0A2F5607243EAC253C360CC7BB8
:1017200024F07F0443EA0463C360CB7C5B0903615C
:101730000A7D43EAC20303614A7D43EAC222026191
:101740008B7DDB0403F4F00313430361CC7D8D7DBB
:10175000220102F4FE6252EA151205D0A2F560726F
:1017600043EAC2530361CC7D24F07F0443EA04635F
:101770000361CB7E5B0983610A7F43EAC203836115
:101780004A7F43EAC22282618B7FDB0403F4F003C9
:1017900013438361CC7F8D7F220102F4FE6252EA03
:1017A000151205D0A2F5607243EAC2538361CC7F63
:1017B00024F07F0443EA0463836191F823305B09DA
:1017C000C36191F8242043EAC203C36191F8252044
:1017D00043EAC222C26191F82630DB0403F4F0032D
:1017E0001343C36191F8274091F82650220102F477
:1017F000FE6252EA151206D0A2F5607243EAC253A5
:10180000C36191F8274024F07F0443EA0463C36175
:1018100091F82B305B09036291F82C2043EAC20354
:10182000036291F82D2043EAC222026291F82E3021
:10183000DB0403F4F0031343036291F82F4091F8A3
:101840002E50220102F4FE6252EA151206D0A2F5D1
:10185000607243EAC253036291F82F4024F07F0480
:1018600043EA0463036291F833305B09836291F8C1
:10187000342043EAC203836291F8352043EAC2224E
:10188000826291F83630DB0403F4F0031343836281
:1018900091F8374091F83650220102F4FE6252EA84
:1018A000151206D0A2F5607243EAC253836291F822
:1018B000374024F07F0443EA0463836291F83B30AD
:1018C0005B09C36291F83C2043EAC203C36291F80A
:1018D0003D2043EAC222C26291F83E30DB0403F4A9
:1018E000F0031343C36291F83F4091F83E50220148
:1018F00002F4FE6252EA151206D0A2F5607243EAC3
:10190000C253C36291F83F4024F07F0443EA04636A
:10191000C36291F843305B09036391F8442043EAC2
:10192000C203036391F8452043EAC222026391F89F
:101930004630DB0403F4F0031343036391F847409C
:1019400091F84650220102F4FE6252EA151206D0C6
:10195000A2F5607243EAC253036391F8474024F052
:101960007F0443EA0463036330BC4820704700BF30
:10197000F0B585B0364A01920368364D03950322CF
:101980008DF808201B6834498B425AD10023382136
:10199000044680F8232205F1300E80F8241280F8E6
:1019A000253280F8263280F8273200F50A772E4655
:1019B0000FCE764538607960BA60FB60354607F136
:1019C0001007F4D103CD00227960C2234FF0FF0E3F
:1019D000FE263D250721386084F8203284F81CE279
:1019E00084F81D6284F81E5284F81F2284F8222293
:1019F00084F8211204F2212304F25F2001E013F89D
:101A0000011F83420A44FAD1D243144E84F8602263
:101A100004F21B2504F5187703E007F09DFCBD4296
:101A20000BD0626815F8011F13681B68B3420846A3
:101A3000F3D010469847BD42F3D14FF0FF3005B0C8
:101A4000F0BD01AA072198474FF0FF3005B0F0BD67
:101A5000B4C8000080CB0000E92B0000A9090000F9
:101A60001F4B10B41A681368506819780478507ABC
:101A7000137A044201EA03011AD0937A03F00303B4
:101A800009B143F0040343F008039910013B91723C
:101A90000D2B0BD8DFE803F01E0719070A141E1ED2
:101AA000140A0719071ED368013BD36010BC7047A6
:101AB000937A03F003030029E7D043F00403E4E73B
:101AC000D36810BC023BD3607047D36810BC0233AC
:101AD000D3607047D36810BC0133D360704700BF38
:101AE000C09AFF1F1F4B10B45A68136850681978CA
:101AF0000478507A137A044201EA03011AD0937AE7
:101B000003F0030309B143F0040343F00803991001
:101B1000013B91720D2B0BD8DFE803F01E0719076C
:101B20000A141E1E140A0719071ED368013BD3604E
:101B300010BC7047937A03F003030029E7D043F009
:101B40000403E4E7D36810BC023BD3607047D3685A
:101B500010BC0233D3607047D36810BC0133D3602C
:101B6000704700BFC09AFF1F1F4B10B49A681368DC
:101B7000506819780478507A137A044201EA030114
:101B80001AD0937A03F0030309B143F0040343F03E
:101B900008039910013B91720D2B0BD8DFE803F07D
:101BA0001E0719070A141E1E140A0719071ED368F8
:101BB000013BD36010BC7047937A03F00303002904
:101BC000E7D043F00403E4E7D36810BC023BD360E2
:101BD0007047D36810BC0233D3607047D36810BC21
:101BE0000133D360704700BFC09AFF1F1F4B10B472
:101BF000DA681368506819780478507A137A0442C6
:101C000001EA03011AD0937A03F0030309B143F008
:101C1000040343F008039910013B91720D2B0BD87C
:101C2000DFE803F01E0719070A141E1E140A07191D
:101C3000071ED368013BD36010BC7047937A03F052
:101C400003030029E7D043F00403E4E7D36810BCA2
:101C5000023BD3607047D36810BC0233D360704737
:101C6000D36810BC0133D360704700BFC09AFF1F18
:101C70001F4B10B41A691368506819780478507AA9
:101C8000137A044201EA03011AD0937A03F00303A2
:101C900009B143F0040343F008039910013B91722A
:101CA0000D2B0BD8DFE803F01E0719070A141E1EC0
:101CB000140A0719071ED368013BD36010BC704794
:101CC000937A03F003030029E7D043F00403E4E729
:101CD000D36810BC023BD3607047D36810BC02339A
:101CE000D3607047D36810BC0133D360704700BF26
:101CF000C09AFF1F1F4B10B45A69136850681978B7
:101D00000478507A137A044201EA03011AD0937AD4
:101D100003F0030309B143F0040343F008039910EF
:101D2000013B91720D2B0BD8DFE803F01E0719075A
:101D30000A141E1E140A0719071ED368013BD3603C
:101D400010BC7047937A03F003030029E7D043F0F7
:101D50000403E4E7D36810BC023BD3607047D36848
:101D600010BC0233D3607047D36810BC0133D3601A
:101D7000704700BFC09AFF1F1F4B10B49A691368C9
:101D8000506819780478507A137A044201EA030102
:101D90001AD0937A03F0030309B143F0040343F02C
:101DA00008039910013B91720D2B0BD8DFE803F06B
:101DB0001E0719070A141E1E140A0719071ED368E6
:101DC000013BD36010BC7047937A03F003030029F2
:101DD000E7D043F00403E4E7D36810BC023BD360D0
:101DE0007047D36810BC0233D3607047D36810BC0F
:101DF0000133D360704700BFC09AFF1F1F4B10B460
:101E0000DA691368506819780478507A137A0442B2
:101E100001EA03011AD0937A03F0030309B143F0F6
:101E2000040343F008039910013B91720D2B0BD86A
:101E3000DFE803F01E0719070A141E1E140A07190B
:101E4000071ED368013BD36010BC7047937A03F040
:101E500003030029E7D043F00403E4E7D36810BC90
:101E6000023BD3607047D36810BC0233D360704725
:101E7000D36810BC0133D360704700BFC09AFF1F06
:101E80001F4B10B41A6A1368506819780478507A96
:101E9000137A044201EA03011AD0937A03F0030390
:101EA00009B143F0040343F008039910013B917218
:101EB0000D2B0BD8DFE803F01E0719070A141E1EAE
:101EC000140A0719071ED368013BD36010BC704782
:101ED000937A03F003030029E7D043F00403E4E717
:101EE000D36810BC023BD3607047D36810BC023388
:101EF000D3607047D36810BC0133D360704700BF14
:101F0000C09AFF1F1F4B10B45A6A136850681978A3
:101F10000478507A137A044201EA03011AD0937AC2
:101F200003F0030309B143F0040343F008039910DD
:101F3000013B91720D2B0BD8DFE803F01E07190748
:101F40000A141E1E140A0719071ED368013BD3602A
:101F500010BC7047937A03F003030029E7D043F0E5
:101F60000403E4E7D36810BC023BD3607047D36836
:101F700010BC0233D3607047D36810BC0133D36008
:101F8000704700BFC09AFF1F1F4B10B49A6A1368B6
:101F9000506819780478507A137A044201EA0301F0
:101FA0001AD0937A03F0030309B143F0040343F01A
:101FB00008039910013B91720D2B0BD8DFE803F059
:101FC0001E0719070A141E1E140A0719071ED368D4
:101FD000013BD36010BC7047937A03F003030029E0
:101FE000E7D043F00403E4E7D36810BC023BD360BE
:101FF0007047D36810BC0233D3607047D36810BCFD
:102000000133D360704700BFC09AFF1F1F4B10B44D
:10201000DA6A1368506819780478507A137A04429F
:1020200001EA03011AD0937A03F0030309B143F0E4
:10203000040343F008039910013B91720D2B0BD858
:10204000DFE803F01E0719070A141E1E140A0719F9
:10205000071ED368013BD36010BC7047937A03F02E
:1020600003030029E7D043F00403E4E7D36810BC7E
:10207000023BD3607047D36810BC0233D360704713
:10208000D36810BC0133D360704700BFC09AFF1FF4
:102090001F4B10B41A6B1368506819780478507A83
:1020A000137A044201EA03011AD0937A03F003037E
:1020B00009B143F0040343F008039910013B917206
:1020C0000D2B0BD8DFE803F01E0719070A141E1E9C
:1020D000140A0719071ED368013BD36010BC704770
:1020E000937A03F003030029E7D043F00403E4E705
:1020F000D36810BC023BD3607047D36810BC023376
:10210000D3607047D36810BC0133D360704700BF01
:10211000C09AFF1F1F4B10B45A6B13685068197890
:102120000478507A137A044201EA03011AD0937AB0
:1021300003F0030309B143F0040343F008039910CB
:10214000013B91720D2B0BD8DFE803F01E07190736
:102150000A141E1E140A0719071ED368013BD36018
:1021600010BC7047937A03F003030029E7D043F0D3
:102170000403E4E7D36810BC023BD3607047D36824
:1021800010BC0233D3607047D36810BC0133D360F6
:10219000704700BFC09AFF1F1F4B10B49A6B1368A3
:1021A000506819780478507A137A044201EA0301DE
:1021B0001AD0937A03F0030309B143F0040343F008
:1021C00008039910013B91720D2B0BD8DFE803F047
:1021D0001E0719070A141E1E140A0719071ED368C2
:1021E000013BD36010BC7047937A03F003030029CE
:1021F000E7D043F00403E4E7D36810BC023BD360AC
:102200007047D36810BC0233D3607047D36810BCEA
:102210000133D360704700BFC09AFF1F1F4B10B43B
:10222000DA6B1368506819780478507A137A04428C
:1022300001EA03011AD0937A03F0030309B143F0D2
:10224000040343F008039910013B91720D2B0BD846
:10225000DFE803F01E0719070A141E1E140A0719E7
:10226000071ED368013BD36010BC7047937A03F01C
:1022700003030029E7D043F00403E4E7D36810BC6C
:10228000023BD3607047D36810BC0233D360704701
:10229000D36810BC0133D360704700BFC09AFF1FE2
:1022A0001F4B10B41A6C1368506819780478507A70
:1022B000137A044201EA03011AD0937A03F003036C
:1022C00009B143F0040343F008039910013B9172F4
:1022D0000D2B0BD8DFE803F01E0719070A141E1E8A
:1022E000140A0719071ED368013BD36010BC70475E
:1022F000937A03F003030029E7D043F00403E4E7F3
:10230000D36810BC023BD3607047D36810BC023363
:10231000D3607047D36810BC0133D360704700BFEF
:10232000C09AFF1F1F4B10B45A6C1368506819787D
:102330000478507A137A044201EA03011AD0937A9E
:1023400003F0030309B143F0040343F008039910B9
:10235000013B91720D2B0BD8DFE803F01E07190724
:102360000A141E1E140A0719071ED368013BD36006
:1023700010BC7047937A03F003030029E7D043F0C1
:102380000403E4E7D36810BC023BD3607047D36812
:1023900010BC0233D3607047D36810BC0133D360E4
:1023A000704700BFC09AFF1F1F4B10B49A6C136890
:1023B000506819780478507A137A044201EA0301CC
:1023C0001AD0937A03F0030309B143F0040343F0F6
:1023D00008039910013B91720D2B0BD8DFE803F035
:1023E0001E0719070A141E1E140A0719071ED368B0
:1023F000013BD36010BC7047937A03F003030029BC
:10240000E7D043F00403E4E7D36810BC023BD36099
:102410007047D36810BC0233D3607047D36810BCD8
:102420000133D360704700BFC09AFF1F1F4B10B429
:10243000DA6C1368506819780478507A137A044279
:1024400001EA03011AD0937A03F0030309B143F0C0
:10245000040343F008039910013B91720D2B0BD834
:10246000DFE803F01E0719070A141E1E140A0719D5
:10247000071ED368013BD36010BC7047937A03F00A
:1024800003030029E7D043F00403E4E7D36810BC5A
:10249000023BD3607047D36810BC0233D3607047EF
:1024A000D36810BC0133D360704700BFC09AFF1FD0
:1024B0001F4B10B41A6D1368506819780478507A5D
:1024C000137A044201EA03011AD0937A03F003035A
:1024D00009B143F0040343F008039910013B9172E2
:1024E0000D2B0BD8DFE803F01E0719070A141E1E78
:1024F000140A0719071ED368013BD36010BC70474C
:10250000937A03F003030029E7D043F00403E4E7E0
:10251000D36810BC023BD3607047D36810BC023351
:10252000D3607047D36810BC0133D360704700BFDD
:10253000C09AFF1F1F4B10B45A6D1368506819786A
:102540000478507A137A044201EA03011AD0937A8C
:1025500003F0030309B143F0040343F008039910A7
:10256000013B91720D2B0BD8DFE803F01E07190712
:102570000A141E1E140A0719071ED368013BD360F4
:1025800010BC7047937A03F003030029E7D043F0AF
:102590000403E4E7D36810BC023BD3607047D36800
:1025A00010BC0233D3607047D36810BC0133D360D2
:1025B000704700BFC09AFF1F1F4B10B49A6D13687D
:1025C000506819780478507A137A044201EA0301BA
:1025D0001AD0937A03F0030309B143F0040343F0E4
:1025E00008039910013B91720D2B0BD8DFE803F023
:1025F0001E0719070A141E1E140A0719071ED3689E
:10260000013BD36010BC7047937A03F003030029A9
:10261000E7D043F00403E4E7D36810BC023BD36087
:102620007047D36810BC0233D3607047D36810BCC6
:102630000133D360704700BFC09AFF1F1F4B10B417
:10264000DA6D1368506819780478507A137A044266
:1026500001EA03011AD0937A03F0030309B143F0AE
:10266000040343F008039910013B91720D2B0BD822
:10267000DFE803F01E0719070A141E1E140A0719C3
:10268000071ED368013BD36010BC7047937A03F0F8
:1026900003030029E7D043F00403E4E7D36810BC48
:1026A000023BD3607047D36810BC0233D3607047DD
:1026B000D36810BC0133D360704700BFC09AFF1FBE
:1026C0001F4B10B41A6E1368506819780478507A4A
:1026D000137A044201EA03011AD0937A03F0030348
:1026E00009B143F0040343F008039910013B9172D0
:1026F0000D2B0BD8DFE803F01E0719070A141E1E66
:10270000140A0719071ED368013BD36010BC704739
:10271000937A03F003030029E7D043F00403E4E7CE
:10272000D36810BC023BD3607047D36810BC02333F
:10273000D3607047D36810BC0133D360704700BFCB
:10274000C09AFF1F1F4B10B45A6E13685068197857
:102750000478507A137A044201EA03011AD0937A7A
:1027600003F0030309B143F0040343F00803991095
:10277000013B91720D2B0BD8DFE803F01E07190700
:102780000A141E1E140A0719071ED368013BD360E2
:1027900010BC7047937A03F003030029E7D043F09D
:1027A0000403E4E7D36810BC023BD3607047D368EE
:1027B00010BC0233D3607047D36810BC0133D360C0
:1027C000704700BFC09AFF1F1F4B10B49A6E13686A
:1027D000506819780478507A137A044201EA0301A8
:1027E0001AD0937A03F0030309B143F0040343F0D2
:1027F00008039910013B91720D2B0BD8DFE803F011
:102800001E0719070A141E1E140A0719071ED3688B
:10281000013BD36010BC7047937A03F00303002997
:10282000E7D043F00403E4E7D36810BC023BD36075
:102830007047D36810BC0233D3607047D36810BCB4
:102840000133D360704700BFC09AFF1F1F4B10B405
:10285000DA6E1368506819780478507A137A044253
:1028600001EA03011AD0937A03F0030309B143F09C
:10287000040343F008039910013B91720D2B0BD810
:10288000DFE803F01E0719070A141E1E140A0719B1
:10289000071ED368013BD36010BC7047937A03F0E6
:1028A00003030029E7D043F00403E4E7D36810BC36
:1028B000023BD3607047D36810BC0233D3607047CB
:1028C000D36810BC0133D360704700BFC09AFF1FAC
:1028D0001F4B10B41A6F1368506819780478507A37
:1028E000137A044201EA03011AD0937A03F0030336
:1028F00009B143F0040343F008039910013B9172BE
:102900000D2B0BD8DFE803F01E0719070A141E1E53
:10291000140A0719071ED368013BD36010BC704727
:10292000937A03F003030029E7D043F00403E4E7BC
:10293000D36810BC023BD3607047D36810BC02332D
:10294000D3607047D36810BC0133D360704700BFB9
:10295000C09AFF1F1F4B10B45A6F13685068197844
:102960000478507A137A044201EA03011AD0937A68
:1029700003F0030309B143F0040343F00803991083
:10298000013B91720D2B0BD8DFE803F01E071907EE
:102990000A141E1E140A0719071ED368013BD360D0
:1029A00010BC7047937A03F003030029E7D043F08B
:1029B0000403E4E7D36810BC023BD3607047D368DC
:1029C00010BC0233D3607047D36810BC0133D360AE
:1029D000704700BFC09AFF1F1F4B10B49A6F136857
:1029E000506819780478507A137A044201EA030196
:1029F0001AD0937A03F0030309B143F0040343F0C0
:102A000008039910013B91720D2B0BD8DFE803F0FE
:102A10001E0719070A141E1E140A0719071ED36879
:102A2000013BD36010BC7047937A03F00303002985
:102A3000E7D043F00403E4E7D36810BC023BD36063
:102A40007047D36810BC0233D3607047D36810BCA2
:102A50000133D360704700BFC09AFF1F1F4B10B4F3
:102A6000DA6F1368506819780478507A137A044240
:102A700001EA03011AD0937A03F0030309B143F08A
:102A8000040343F008039910013B91720D2B0BD8FE
:102A9000DFE803F01E0719070A141E1E140A07199F
:102AA000071ED368013BD36010BC7047937A03F0D4
:102AB00003030029E7D043F00403E4E7D36810BC24
:102AC000023BD3607047D36810BC0233D3607047B9
:102AD000D36810BC0133D360704700BFC09AFF1F9A
:102AE0001F4B10B4D3F8802013685068197804780D
:102AF000507A137A044201EA03011AD0937A03F060
:102B0000030309B143F0040343F008039910013BA8
:102B100091720D2B0BD8DFE803F01E0719070A147A
:102B20001E1E140A0719071ED368013BD36010BC90
:102B30007047937A03F003030029E7D043F00403BE
:102B4000E4E7D36810BC023BD3607047D36810BC85
:102B50000233D3607047D36810BC0133D360704731
:102B6000C09AFF1F1F4B10B4D3F88420136850681D
:102B700019780478507A137A044201EA03011AD0D2
:102B8000937A03F0030309B143F0040343F008030D
:102B90009910013B91720D2B0BD8DFE803F01E0753
:102BA00019070A141E1E140A0719071ED368013BD1
:102BB000D36010BC7047937A03F003030029E7D079
:102BC00043F00403E4E7D36810BC023BD3607047D2
:102BD000D36810BC0233D3607047D36810BC013394
:102BE000D3607047C09AFF1F2DE9F041632984B07C
:102BF00003DD90F8F874002F53D0136805460F4694
:102C000010461B6805F223219847C2B2C0F3072182
:102C1000561885F81E2247F30722F643FF234FF08C
:102C2000FE0EFCB285F82222421C85F8206285F84F
:102C30001F1285F81C3285F81DE285F821420DDB54
:102C400000F22221294405F22123002201E013F899
:102C5000014F99422244FAD1D343DBB22A1800F142
:102C60000807B7F5007F82F823321EDC002F05F538
:102C7000077616DD0730DFF81081064405F21B24C5
:102C800003E006F069FBB4420BD06A6814F8011F38
:102C900013681B6843450846F3D010469847B44272
:102CA000F3D1384604B0BDE8F081344A0192344C87
:102CB0002B68039403228DF808201B6831498B424E
:102CC00055D10023382185F8232204F1300E85F8F0
:102CD000241285F8253285F8263285F8273205F545
:102CE0000A7627460FCF774530607160B260F36097
:102CF0003C4606F11006F4D103CC00227160C223D9
:102D00004FF0FF0EFE273D240721306085F820326A
:102D100085F81CE285F81D7285F81E4285F81F2291
:102D200085F8222285F8211205F2212305F25F2081
:102D300001E013F8011F98420A44FAD1D243DFF8A8
:102D4000488085F8602205F21B2405F5187603E01B
:102D500006F002FBB4420ED06A6814F8011F136833
:102D60001B6843450846F3D010469847F2E72846CB
:102D700001AA072198474FF0FF3093E7B4C800003D
:102D800080CB0000E92B0000A909000008B5094824
:102D900004F038F8084804F07FFB074804F0A0FB73
:102DA00000B908BD054804F077FB0448BDE80840B9
:102DB00004F096BB0088FF1F149AFF1FCC99FF1FD9
:102DC00010B5002382B0224A0260044601AA436083
:102DD0008360C3600DF102010DF106031D4804F08C
:102DE00099FBBDF9020007F047FF00221A4B07F0DC
:102DF000A9FF15A3D3E9002307F0A4FF08F064FAA4
:102E00006060BDF9040007F037FF0022124B07F0A5
:102E100099FF0DA3D3E9002307F094FF08F054FABB
:102E2000A060BDF9060007F027FF00220A4B07F05B
:102E300089FF05A3D3E9002307F084FF08F044FAD3
:102E4000E060204602B010BD00000060B89E234044
:102E5000FCC80000149AFF1F0000103FFFFFFFFF97
:102E600010B5002382B0264A0260044601AA4360DE
:102E70008360C3600DF102010DF10603214804F0E7
:102E80006BFBBDF9020007F0F7FE19A3D3E900239D
:102E900008F082F818A3D3E9002307F053FF08F0E5
:102EA00013FA6060BDF9040007F0E6FE10A3D3E951
:102EB000002308F071F810A3D3E9002307F042FFC4
:102EC00008F002FAA060BDF9060007F0D5FE08A3DD
:102ED000D3E9002308F060F807A3D3E9002307F043
:102EE00031FF08F0F1F9E060204602B010BD00BFEC
:102EF0000000000000606040000000A046DF913F3D
:102F0000FCC80000CC99FF1FF8B5044615460E46D4
:102F1000084602211F4605F07FF92846022105F0E8
:102F20007BF99F4A276052F83610012301F50070A3
:102F3000E060237552F83520637502F500770020B4
:102F40004BF680332761A061013BFDD191F800323F
:102F500092F8002203F00103D20744BF43F00203BA
:102F6000DBB2A37504F10C07212E00F24983DFE8E0
:102F700016F03C0333032A03210318030F0306034F
:102F8000FD02F402EB02E202D9028C0283027A0211
:102F9000710268025F0256024D0244023B02320295
:102FA0002902200217020E020502FC01F301EA01C8
:102FB000E101D70122007B4B7B49C3F884700422D6
:102FC000212004F053FF01232377212D00F21683E3
:102FD000DFE815F09C01920188017E0174016A010D
:102FE000600156014C01420138012E0124011A01F1
:102FF0001001DB00D100C700BD00B300A9009F0095
:1030000095008B00810077006D00630059004F0030
:1030100045003B0030002200624B6349C3F88470D6
:103020000422212004F022FF237F0122134423776E
:103030002046F8BD5B4B5D49C3F880700422202018
:1030400004F014FF237F0122F0E7564B5849DF6755
:1030500004221F2004F00AFF237F0122E6E7514BE0
:1030600054499F6704221E2004F000FF237F0122A1
:10307000DCE74C4B50495F6704221D2004F0F6FE4C
:10308000237F0122D2E7474B4C491F6704221C20B3
:1030900004F0ECFE237F0122C8E7424B4849DF667B
:1030A00004221B2004F0E2FE237F0122BEE73D4BF9
:1030B00044499F6604221A2004F0D8FE237F01228F
:1030C000B4E7384B40495F660422192004F0CEFE75
:1030D000237F0122AAE7334B3C491F6604221820B4
:1030E00004F0C4FE237F0122A0E72E4B3849DF65A0
:1030F0000422172004F0BAFE237F012296E7294B11
:1031000034499F650422162004F0B0FE237F01227B
:103110008CE7244B30495F650422152004F0A6FE9D
:10312000237F012282E71F4B2C491F6504221420B4
:1031300004F09CFE237F012278E71A4B2849DF64C4
:103140000422132004F092FE237F01226EE7154B28
:1031500024499F640422122004F088FE237F012268
:1031600064E7104B20495F640422112004F07EFEC6
:10317000237F01225AE70B4B1C491F6404221020B5
:1031800004F074FE237F012250E7064B1849DF63E9
:1031900004220F2004F06AFE237F012246E700BFCD
:1031A00050CD0000C09AFF1F652B0000E12A0000EF
:1031B0005D2A0000D929000055290000D12800000F
:1031C0004D280000C927000045270000C126000047
:1031D0003D260000B925000035250000B12400007F
:1031E0002D240000A923000025230000A1220000B7
:1031F0001D220000A94BAA499F6304220E2004F05F
:1032000035FE237F012211E7A44BA6495F63042208
:103210000D2004F02BFE237F012207E79F4BA249DC
:103220001F6304220C2004F021FE237F0122FDE60F
:103230009A4B9E49DF6204220B2004F017FE237F85
:103240000122F3E6954B9A499F6204220A2004F07A
:103250000DFE237F0122E9E6904B96495F6204222E
:10326000092004F003FE237F0122DFE68B4B924905
:103270001F620422082004F0F9FD237F0122D5E615
:10328000864B8E49DF610422072004F0EFFD237F87
:103290000122CBE6814B8A499F610422062004F07B
:1032A000E5FD237F0122C1E67C4B86495F61042254
:1032B000052004F0DBFD237F0122B7E6774B82492E
:1032C0001F610422104604F0D1FD237F0122ADE6E8
:1032D000724B7E49DF600422032004F0C7FD237F88
:1032E0000122A3E66D4B7A499F600422022004F07C
:1032F000BDFD237F012299E6684B76495F60042279
:10330000012004F0B3FD237F01228FE6634B724955
:103310001F600422002004F0A9FD237F012285E61E
:103320005E4B6E49C3F880700422202004F09EFD9D
:10333000012349E6594B6A49DF6704221F2004F044
:1033400095FD012340E6554B66499F6704221E20E8
:1033500004F08CFD012337E6504B63495F6704227C
:103360001D2004F083FD01232EE64C4B5F491F67AF
:1033700004221C2004F07AFD012325E6474B5C491A
:10338000DF6604221B2004F071FD01231CE6434B81
:1033900058499F6604221A2004F068FD012313E6B1
:1033A0003E4B55495F660422192004F05FFD01235E
:1033B0000AE63A4B51491F660422182004F056FDD4
:1033C000012301E6354B4E49DF650422172004F046
:1033D0004DFD0123F8E5314B4A499F650422162033
:1033E00004F044FD0123EFE52C4B47495F650422BF
:1033F000152004F03BFD0123E6E5284B43491F65FA
:103400000422142004F032FD0123DDE5234B404962
:10341000DF640422132004F029FD0123D4E51F4BAF
:103420003C499F640422122004F020FD0123CBE5D7
:103430001A4B39495F640422112004F017FD01235F
:10344000C2E5164B35491F640422102004F00EFD1E
:103450000123B9E5114B3249DF6304220F2004F048
:1034600005FD0123B0E50D4B0D499F6304220E209D
:1034700004F0FCFC0123A7E5084B0A495F63042222
:103480000D2004F0F3FC01239EE5044B06491F6365
:1034900004220C2004F0EAFC012395E5C09AFF1FEA
:1034A0009921000015210000912000000D2000004E
:1034B000891F0000051F0000811E0000FD1D000087
:1034C000791D0000F51C0000711C0000ED1B0000C0
:1034D000691B0000E51A0000611A0000E12A0000E3
:1034E0005D2A0000D929000055290000D1280000DC
:1034F0004D280000C927000045270000C126000014
:103500003D260000B925000035250000B12400004B
:103510002D240000A923000025230000A122000083
:103520001D220000374B3849DF6204220B2004F0D3
:103530009DFC012348E5334B34499F6204220A2055
:1035400004F094FC01233FE52E4B31495F620422D5
:10355000092004F08BFC012336E52A4B2D491F621C
:103560000422082004F082FC01232DE5254B2A4982
:10357000DF610422072004F079FC012324E5214BBC
:1035800026499F610422062004F070FC01231BE5FC
:103590001C4B23495F610422052004F067FC0123D2
:1035A00012E5184B1F491F610422104604F05EFC0F
:1035B000012309E5134B1C49DF600422032004F0BA
:1035C00055FC012300E50F4B18499F60042202209F
:1035D00004F04CFC0123F7E40A4B15495F60042218
:1035E000012004F043FC0123EEE4064B11491F6067
:1035F0000422002004F03AFC0123E5E4002215E552
:103600000023E1E4C09AFF1F0D200000891F000085
:10361000051F0000811E0000FD1D0000791D000037
:10362000F51C0000711C0000ED1B0000691B000070
:10363000E51A0000611A00002DE9F04F012191B058
:10364000002004F0E9FD0121002004F0DFFD072146
:10365000C348DFF8308303F061FA5A21C04803F011
:1036600063FA00234FF46142C8F80820C8F8E43434
:1036700008F27C42C8F8E834C8F8F034C8F8EC34F2
:1036800002E00133192B0AD052F8041F0029F8D1A7
:1036900003F59071B34A48F8212064335360B24A6D
:1036A000002302E00133192B0AD052F8041F00292D
:1036B000F8D103F59071AD4A48F821206433536086
:1036C000AB4A002302E00133192B0CD052F8041F3F
:1036D0000029F8D1A74A08EB83017D33C1F81C24E7
:1036E0009360C2F80C80A24A002302E00133192B38
:1036F0000CD052F8041F0029F8D19F4A08EB83012F
:103700007D33C1F81C249360C2F80C8098F8F8242B
:103710009A4B0093002A40F01282DFF88092DFF883
:1037200080B2974FA3F5077AD9F800300893089E26
:10373000D8F8003542F6F821F31A8B4284BF0023F3
:103740008AF8F83432B1D8F804359E4284BF002399
:10375000CAF8E434D8F8182032B1D9F800300C9304
:103760000C9B9B1B9A4226D3D8F8040003685B6924
:10377000BB4240F0AE8005F005FD0028C0F2AD80F0
:10378000D8F8F434D8F8E4240344072AC8F8F43409
:1037900000F02281002A63D1FF2800F03181D9F89E
:1037A00000300B930B9B41F288319B1B8B42D1D98C
:1037B000744B83F8F824744D744C0FCD0FC495E806
:1037C00003001826FF2584E803000022FE214FF0A5
:1037D000010E1D2088F8246288F81C52E226072575
:1037E000A4F1170388F81D12073488F823E288F83B
:1037F000252288F8262288F8272288F81F2288F8B0
:10380000222288F81E0288F8206288F82152294670
:1038100001E013F8011F9C420A44FAD1009BD243F5
:1038200088F840221C4603F12405FF2105E005F03D
:1038300093FDAC420CD014F8011FD8F80420136893
:103840001B685B450846F2D010469847AC42F2D15F
:1038500098F8F834002B40F07481DAF8E42463E738
:10386000012A00F0D580022A00F02981032A00F005
:103870003181042A00F03881052A00F04481062AAB
:1038800000F04981082A7FF465AF414A1A400023BD
:103890009A42C8F8E434C0F2A281FF2A7FF45AAFFA
:1038A000D8F8EC34002B00F0CB820A2B00F0868293
:1038B000062B00F0A7810B2B00F09681BC335AF841
:1038C000230000283FF446AF036832491B6898473D
:1038D00040E798470028BFF653AF98F8F834002B1C
:1038E0003FF469AFDAF8FC3440F6C412F31A93429D
:1038F0007FF661AFFF21FE24274B8AF81C120821B6
:1039000000228AF81D428AF81E12F7240A2103F1C8
:1039100009008AF823228AF824228AF825228AF8C4
:1039200026228AF827228AF828228AF829228AF869
:103930002A228AF81F228AF822228AF820428AF84C
:10394000211201E013F8011F98420A44FAD1009BAA
:10395000D24388F82B221D4603F10F04FF2127E0F4
:103960006893FF1F4493FF1FDC98FF1FDC92FF1F2B
:103970007898FF1F5C9AFF1F789AFF1F7C96FF1FA5
:10398000910700006094FF1FD0CB00008896FF1FB6
:10399000FF0000807C94FF1F8196FF1F4C9BFF1F40
:1039A000A909000005F0D8FCAC420CD015F8011FA5
:1039B000D8F8042013681B685B450846F2D010460F
:1039C0009847AC42F2D1D9F800300793079BC8F86A
:1039D000FC64C8F80C30EEE6DAF8F024DAF8E834E3
:1039E0000AEB0201013B01320877CAF8F024CAF859
:1039F000E834002B7FF4AEAE0823C8F8E434A9E61F
:103A0000012206F11403CAF8E424CAF80435A1E639
:103A1000FE2874D09AF8F8240023CAF8E434002A67
:103A20007FF498AEFF21FE24714B8AF81C12082106
:103A30008AF81D428AF81E12F7240A218AF82322E6
:103A40008AF824228AF825228AF826228AF8272250
:103A50008AF828228AF829228AF82A228AF81F223C
:103A60008AF8222203F109008AF820428AF82112FA
:103A700001E013F8011F98420A44FAD1009BD24397
:103A800088F82B221C4603F10F05FF2105E005F005
:103A900063FCAC420CD014F8011FD8F80420136862
:103AA0001B685B450846F2D010469847AC42F2D1FD
:103AB000D9F800300A930A9BC8F80C304AE6002275
:103AC0000323CAF8E804CAF8F404CAF8F024CAF8D0
:103AD000E4343FE6DAF8E834042203EB0023CAF8C2
:103AE000E834CAF8E42435E6424A1A40002A21DBC9
:103AF000FF2A0CBF05230023C8F8E4342AE602237A
:103B0000CAF8E43426E60623CAF8EC04CAF8F4043A
:103B1000CAF8E4341EE6DAF8EC34DAF8E82403EB09
:103B200000230721CAF8EC34CAF8E414002A3FF451
:103B300063AF0FE6013A62F0FF020132D8E7DFF827
:103B4000C0B02D4D2D4C0FCD0FC423462A6823F84D
:103B500017290125FF21002260191227FE2688F867
:103B60002352E824172588F81C12072188F82472AC
:103B700088F8252288F8262288F8272288F81F222C
:103B800088F8222288F81D6288F81E5288F82042A0
:103B900088F8211201E013F8011F98420A44FAD173
:103BA000009CD24388F83A2204F11E05FF2105E06B
:103BB00005F0D2FBAC420CD014F8011FD8F8042059
:103BC00013681B685B450846F2D010469847AC4224
:103BD000F2D1012004F026FB11B0BDE8F08F013ACC
:103BE00062F0FF02013258E600238AF8F834B1E5AA
:103BF0008196FF1FFF000080BCCB00008896FF1F4E
:103C0000A9090000DAF81C40DAF810359C4200F2ED
:103C10000F81C8F81045002C00F07081C14A0423C0
:103C200002F21455002492F8221092F821E092F842
:103C30002000090441EA0E2192F823E0014341EA01
:103C40000E61C8F81415D8F81815286841F8240032
:103C5000D8F810050134A042194602F1040203F11C
:103C60000403E0D8039301F10B0301F1090201F110
:103C70000804029301F10C0301922546481D01F14D
:103C8000060E01F1070C01F10A020493C644039BDE
:103C900008EB000143449EF81C0091F81CE01B7FD8
:103CA000D8F81C15C44400049CF81CC040EA0E203F
:103CB000034343EA0C638B4200F21481C8F81C35BD
:103CC000002B00F02C81984C0AEB05030022997F11
:103CD00093F81DE0187F090441EA0E2193F81FE0D4
:103CE000014341EA0E61C8F82015D8F82415206870
:103CF00041F82200D8F81C0501329042294603F110
:103D0000040305F10405E2D84B1D0193CB1D2C469D
:103D10008A1D029301F10805019B43444244187F28
:103D2000029B117FD8F82825444443449E46090449
:103D3000237F9EF81C4041EA00210B4343EA0464C0
:103D4000944200F2C780C8F828459CB30021DFF8F0
:103D5000F4E10C4605F11C0C0023C4441A461CF87F
:103D6000010B98400833202B42EA0002F7D1281DAE
:103D7000024490420AD205F11F034344054601352F
:103D800093F801C003F801CB9542F8D308EB020386
:103D9000664DDC7601382844D8F83035C8F82C0553
:103DA000DEF8000043F82100D8F8283501318B42B5
:103DB0001546CFD8012388F80835CBE4D9F8003070
:103DC0000D930D9BDAF80C205948D9F800100F918B
:103DD0009B1ADAF82010574DDFF86CC1DDF83CE093
:103DE000DAF81C20A0FB0304A4094FF47A700D44F8
:103DF00000FB14330CFB03534D4D0193A5FB0E3513
:103E00004D49019BAD09013A00FB15E022440CFB32
:103E10001033551B081FCAF81430CAF8105003F0AD
:103E200023FBD9F800300E930E9BCAF8003591E4BD
:103E3000A100DAF8180508F083F8CAF81805E8E6D2
:103E40003E48A0F22A2100F8073C81F81C220A46CD
:103E5000082581F8243281F8253281F8263281F84C
:103E6000273281F8283281F8293281F82A32FE245B
:103E700082F81E52A0F22A2582F81D42F7240A2257
:103E800081F81F3281F8223200F80A4CA0F10901B2
:103E900085F8212201E011F8012F88421344FAD15C
:103EA000274CDB43A4F10F02009288F82B32154611
:103EB000FF2105E005F050FAA54247D015F8011F93
:103EC000D8F8042013681B685B450846F2D01046FA
:103ED0009847F1E7A100DAF8300508F031F8CAF8A0
:103EE000300530E79900DAF824050592039308F0CD
:103EF00027F8059ACAF82405039BDFE60C230493F0
:103F00000B230293092308240193042325460A2244
:103F10004FF0070C4FF0060E05200393B6E6049D04
:103F2000FAE600BF6094FF1F8099FF1F7C94FF1F7B
:103F3000D34D621000CA9A3B7494FF1F8A96FF1FEC
:103F40008B96FF1F8C99FF1F40420F00D9F800305D
:103F50000993C54B03961A46099BC8F80C301646C0
:103F600056F8043F002B00F0C38058689A68016837
:103F70001B68049201938B6898473368044658681D
:103F80000368DB689847336802901D69049A632DC3
:103F900004DD98F8F834002B00F0AA80C2F3072360
:103FA000019888F8232288F8243208F0E9F90346BA
:103FB000020A000C019988F826224FEA136E1A466D
:103FC00088F82702A94888F82532019388F828E262
:103FD00003F00CFE204608F0D3F9019B024603F2E1
:103FE000292040440633002122FA01FE083120290D
:103FF00000F801EBF8D19E48043321461844D41848
:1040000003F0F4FD029808F0BBF904F22321034603
:104010004144002223FA02F00832202A01F8010B61
:10402000F8D1934A02990193043410191A4603F007
:10403000DDFD019B23441A1D5FFA82FEC2F30721B6
:1040400008EB03000EEB01040191E44300214FF063
:10405000020C80F824C280F8231280F8251280F820
:10406000261288F82042ECB245F307254FF0FF0CEA
:10407000FE2088F81EE288F822529DF804E088F8B5
:104080001FE2551C88F81CC288F81D0288F82142DE
:104090000CDB03F226257748554401E010F8014F68
:1040A000A8422144FAD1C9435FFA81FC08EB02011E
:1040B0000832B2F5007F81F823C200F30081002AA4
:1040C00016DD03F227236C4D0AEB030403E005F031
:1040D00043F9A5420CD0D8F8042015F8011F136845
:1040E0001B685B450846F2D010469847A542F2D1BE
:1040F000624B9E427FF434AF1E4656F8040F0028F0
:1041000000F0CF8090E80C000493836801939268DC
:104110009047044630680268D26890470290306841
:1041200002685268904763280546049B04DD98F8AE
:10413000F824002A00F0B580C3F30722019888F81C
:10414000233288F8242208F01BF90346020A000CE7
:10415000019988F826224FEA136E1A4688F827023A
:10416000424888F82532019388F828E203F03EFDA2
:10417000204608F005F9019B024603F2292040443D
:104180000633002122FA01FE0831202900F801EB54
:10419000F8D13748043321461844D41803F026FDDB
:1041A000029808F0EDF804F223210346414400226E
:1041B00023FA02F00832202A01F8010BF8D12C4A28
:1041C00002990193043410191A4603F00FFD019B64
:1041D00023441A1D08EB03005FFA82FEC2F3072195
:1041E0000EEB010401914FF0020C002180F824C273
:1041F00080F8231280F8251280F82612E443FE206E
:104200004FF0FF0C88F8204288F81EE2ECB29DF8CF
:1042100004E088F81D0245F30725501C88F81FE2CA
:1042200088F81CC288F8214288F822520CDB03F27D
:1042300026251048554401E010F8014FA8422144BA
:10424000FAD1C9435FFA81FC08EB02010832B2F5EA
:10425000007F81F823C27FDC002A22DD03F22723BE
:10426000054D0AEB03040FE07898FF1F8996FF1FA6
:104270008396FF1F8196FF1F7B96FF1FDC98FF1F11
:1042800005F06AF8AC420CD0D8F8042015F8011FEC
:1042900013681B685B450846F2D010469847AC424D
:1042A000F2D1574B9E427FF428AF039EC8F8FC64BE
:1042B0000123C8F8006588F8F834FFF77CBA514D3F
:1042C000514C0FCD0FC40FCD0FC40FCD0FC495E8C7
:1042D00003000023032538224FF0FF0E8AF82352F3
:1042E0008AF82422FE253D228AF825328AF82632D1
:1042F0008AF8273284E80300C2218AF81CE24FF0D2
:10430000070EE01D8AF81E228AF81F328AF8223230
:10431000373C8AF81D528AF820128AF821E2724648
:1043200001E014F8012FA0421344FAD1374CDB43CB
:1043300088F86032A4F14405FF20D8F804201368FF
:104340001B685B45014654D105F006F8A5423FF4D1
:10435000CFAE15F8010FF0E72A4D2B4C0FCD0FC44F
:104360000FCD0FC40FCD0FC495E803000023032524
:1043700038224FF0FF0E8AF823528AF82422FE25B5
:104380003D228AF825328AF826328AF8273284E8D4
:104390000300C2218AF81CE24FF0070EE01D8AF8E4
:1043A0001E228AF81F328AF82232373C8AF81D52C0
:1043B0008AF820128AF821E2724601E014F8012FEF
:1043C000A0421344FAD1114CDB4388F86032A4F1C7
:1043D0004405FF20D8F8042013681B685B4501469C
:1043E0000AD104F0B9FFA5423FF45BAF15F8010F05
:1043F000F0E710469847A9E710469847F3E700BF53
:104400004099FF1F80CB00008896FF1FC096FF1FBA
:104410002DE9F04784B0DD4D6846FEF7D1FC0199E7
:10442000029A039BA960EA602B616846FEF718FDBB
:10443000D74AD849D468DDF804902368DDF80880AD
:10444000D3F800A0039F9668C5F8189000238A450A
:10445000C5F81C802F62AB62EB622B6340F0AD812C
:10446000632E04DD94F8F834002B00F06781A8680F
:10447000C0F3C7520346002A40F0638192461146BA
:10448000C3F3C34211434FEA431E002284F82912AA
:10449000D910DB1284F8271284F8232284F824220E
:1044A00084F8252284F826E284F82832002107F0D7
:1044B00007FA002840F0608184F82AA2E868C0F377
:1044C000C7520346002A00F0498102F560721101CB
:1044D00049B2C2F3071AC3F3C34211434FEA431E62
:1044E000002284F83112D910DB1284F82F1284F8DC
:1044F0002B2284F82C2284F82D2284F82EE284F8D2
:104500003032002107F0DCF9002840F0308184F8D7
:1045100032A22869C0F3C7520346002A00F0248162
:1045200002F56072110149B2C2F30715C3F3C34229
:1045300011434FEA431E002284F83912D910DB12CE
:1045400084F8371284F8332284F8342284F8352230
:1045500084F836E284F83832002107F0B1F90028F7
:1045600040F00F8184F83A52C9F3C7524B46002AF3
:1045700000F0F78002F56072110149B2C2F307152D
:10458000C3F3C34211434FEA431E002284F8411291
:10459000D910DB1284F83F12484684F83B2284F895
:1045A0003C2284F83D2284F83EE284F84032002127
:1045B00007F086F9002840F0F68084F84252C8F3EC
:1045C000C7524346002A00F0C68002F5607215010A
:1045D0006DB2C2F30719C3F3C3410D434FEA431E43
:1045E0000021DA10DB1284F8431284F8441284F8B4
:1045F0004512404684F8495284F846E284F847223E
:1046000084F84832002107F05BF9002840F0C680AA
:1046100084F84A92C7F3C7523B46002A00F09880BC
:1046200002F56072110149B2C2F30715C3F3C34228
:1046300011434FEA431E002284F85112D910DB12B5
:1046400084F84F12384684F84B2284F84C2284F8C0
:104650004D2284F84EE284F85032002107F030F900
:10466000002840F0A58084F8525200224820B72349
:10467000F1B2FF27FE2546F3072684F81E0284F8D0
:10468000203284F8532284F8542284F8552284F886
:10469000562284F8572284F8582284F8592284F844
:1046A0005A2284F85B2284F85C2284F85D2284F824
:1046B0005E2284F85F2284F8602284F8612284F804
:1046C000622284F8632284F8642284F8652284F8E4
:1046D000662284F8672284F8682284F8692284F8C4
:1046E0006A2284F81F2284F81C7284F81D5284F810
:1046F000211284F8226204F2212304F26A2001E0EC
:1047000013F8011F98420A44FAD1D243224E84F88A
:104710006B2204F21B2504F26B2703E004F01CFE5D
:10472000BD420BD0626815F8011F13681B68B342C5
:104730000846F3D010469847BD42F3D104B0BDE817
:10474000F08702F56072110149B2C2F3071A97E6C9
:10475000154611466AE7914615463CE792461146D2
:10476000B9E6154611460BE715461146DEE66AF036
:104770007F0284F83222CCE66AF07F0284F82A2293
:104780009CE665F07F0284F83A22EDE69899FF1FD7
:10479000789AFF1FE92B0000A909000069F07F0249
:1047A00084F84A2236E765F07F0284F8422206E761
:1047B00065F07F0284F8522257E72A4631462046A8
:1047C000D04704B0BDE8F08738B51849054607F072
:1047D00077F820BB04461649284607F08FF8B8B989
:1047E0001349284606F0C6FD124906F0CBFE1249D1
:1047F00006F07CFF114906F0BDFD114906F0C2FE2E
:1048000007F086F801460F4802F08EF9284638BDB9
:10481000074D0C48214602F087F9284638BD034D64
:104820000848B42102F080F9284638BDE17AD4BEA8
:10483000E17AD43EDB0F49C0E17A543FDB0F4940B7
:10484000E02E65426893FF1F2DE9F04FDFF8D4A2F8
:10485000A14BA24ADAF80010A14C1B68126893B071
:104860000EA800919F4903F065F8237F012B40F2C9
:10487000CD8172B6A76962B69B4E606833680A93B1
:10488000DDF828B0994DC0EB0B0006F0E5F990A3D8
:10489000D3E9002306F080FBCDE90201A068381AB5
:1048A00006F0EAF9C4F804B08046A760206889469B
:1048B00006F0E2F902460B464046494606F06CFB1C
:1048C000DDE9022306F068FB06F0D6FC2B7F012B06
:1048D000804640F2D58172B6AF6962B633680993FB
:1048E000DDF824906868824CC0EB090006F0B4F94A
:1048F00077A3D3E9002306F04FFBCDE90201A868B6
:10490000381A06F0B9F9C5F80490CDE90401AF6092
:10491000286806F0B1F902460B46DDE9040106F00D
:104920003BFBDDE9022306F037FB06F0A5FC237F05
:10493000012B814640F2DE8172B6A76962B6336808
:104940000893DDF820B060686A4DC0EB0B0006F0FC
:1049500083F95FA3D3E9002306F01EFBCDE9020132
:10496000A068381A06F088F9A760CDE90401C4F8F8
:1049700004B0206806F080F902460B46DDE9040128
:1049800006F00AFBDDE9022306F006FB06F074FCE4
:104990002B7F012B074640F2E58172B6AC6962B607
:1049A000336807936868DDF81CB04E4EC0EB0B000F
:1049B00006F052F946A3D3E9002306F0EDFACDE95B
:1049C0000201A868201A06F057F9AC60CDE904018D
:1049D000C5F804B0286806F04FF902460B46DDE939
:1049E000040106F0D9FADDE9022306F0D5FA06F053
:1049F00043FC0446404606F071FD05460E9806F05D
:104A00006DFD2A4601463C4803F05EF806F034FC92
:104A100001B23A4802F058F9484606F05FFD0546F3
:104A20000F9806F05BFD2A460146354803F04CF826
:104A300006F022FC01B2334802F046F9384606F08F
:104A40004DFD0546109806F049FD2A4601462E48C0
:104A500003F03AF806F010FC01B22C4802F034F9E9
:104A6000204606F03BFD0546119806F037FD2A4624
:104A70000146274803F028F806F0FEFB01B225485E
:104A800002F022F93378023B012B40F2B28001940C
:104A900000974B46424631460BA802F0ABFF1E4939
:104AA0001E4FCC681E4D23680B981E680C9A0D9BF8
:104AB00089686860BE42AA60EB6040F09480632918
:104AC00032DD94F8F854002D00F08A802CE000BF0D
:104AD00000000000004CED40749AFF1F709AFF1F09
:104AE000D093FF1FB093FF1F4C9BFF1F4094FF1FED
:104AF0002493FF1F2094FF1FE099FF1F7893FF1F4F
:104B0000289AFF1FCC93FF1F8093FF1F8C9AFF1FD3
:104B1000F093FF1F589AFF1F5C9AFF1FE92B0000BC
:104B20001493FF1F9499FF1F060A050C4FEA106E9D
:104B3000170A84F8230284F82722180C84F82462C8
:104B400084F82552160C1D0A120E84F82B3284F8B4
:104B500026E21B0E84F828724FF0FF0E84F82962BB
:104B6000FE2784F82A220C2684F82C52002284F88E
:104B70002D02F325C8B241F3072184F82E3284F8C0
:104B8000221284F81CE284F81D7284F81E6284F8F4
:104B90001F2284F8205284F8210204F2212304F217
:104BA0002E2101E013F8010F99420244FAD1D243B9
:104BB000B74E84F82F2204F21B2504F22F2703E0BE
:104BC00004F0CAFBAF420BD0626815F8011F1368EE
:104BD0001B68B3420846F3D010469847AF42F3D162
:104BE00013B0BDE8F08F2A462046B04713B0BDE8A9
:104BF000F08FDAF80000FFF7E7FDCDF800900246ED
:104C0000434631460BA802F0B9FE48E772B6E368A6
:104C100021691A780878617D237D084202EA03023F
:104C200000F0F180A37D03F003030AB143F0040315
:104C300043F008039A10013BA2750D2B3FF61AAE04
:104C400001A252F823F000BF954E0000894E0000EB
:104C5000814E0000894E000075480000794E00002A
:104C6000954E0000954E0000794E000075480000FA
:104C7000894E0000814E0000894E0000954E0000D4
:104C800072B6EB6829691A780878697D2B7D08422D
:104C900002EA030200F0AE80AB7D03F003030AB129
:104CA00043F0040343F008039A10013BAA750D2B4F
:104CB0003FF612AE01A252F823F000BF714E000081
:104CC000694E0000614E0000694E0000D9480000A6
:104CD000594E0000714E0000714E0000594E000008
:104CE000D9480000694E0000614E0000694E000086
:104CF000714E000072B6E36821691A780878617D08
:104D0000237D084202EA030264D0A37D03F003037B
:104D10000AB143F0040343F008039A10013BA27563
:104D20000D2B3FF60AAE01A252F823F0514E0000BF
:104D3000494E0000414E0000494E00003B49000032
:104D4000394E0000514E0000514E0000394E000017
:104D50003B490000494E0000414E0000494E000012
:104D6000514E000072B6EB6829691A780878697D9F
:104D70002B7D084202EA030234D0AB7D03F003032B
:104D8000002A40F08B8043F008039A10013BAA757B
:104D90000D2B3FF603AE01A252F823F0314E000076
:104DA000294E0000214E0000294E00009D490000C0
:104DB000194E0000314E0000314E0000194E000027
:104DC0009D490000294E0000214E0000294E0000A0
:104DD000314E0000A37D03F00303002A9DD043F071
:104DE00004039AE7AB7D03F00303002ACDD043F020
:104DF0000403CAE7AB7D03F00303002A3FF454AF7A
:104E000043F0040350E7A37D03F00303002A3FF4BB
:104E100011AF43F004030DE7AC69023CAC61BEE5A1
:104E2000AC690234AC61BAE5AC69013CAC61B6E591
:104E3000AC690134AC61B2E5A769023FA7617DE5C9
:104E4000A7690237A76179E5A769013FA76175E501
:104E5000A7690137A76171E5AF69023FAF613CE522
:104E6000AF690237AF6138E5AF69013FAF6134E543
:104E7000AF690137AF6130E5A769023FA761FAE486
:104E8000A7690237A761F6E4A769013FA761F2E4C9
:104E9000A9090000A7690137A761ECE443F0040306
:104EA00071E700BF2DE9F04FC34EC44C3368226850
:104EB00095B00493049B9B1A312B00F23382336824
:104EC000BF4A0693069B12689B1AB3F5C87F06D3A8
:104ED000BC48BD49BD4A002303600B6013603368C2
:104EE000BB4F0793079B3A689B1A312B40F21882FD
:104EF000B84C2578002D53D0FFF78AFAB64C3368AA
:104F00000893089B3B6033680993099FD4F80035E8
:104F1000B149FB1A42F6F822934284BF002381F87C
:104F2000F834D4F8E434AC4A33B1D2F804359F42B3
:104F300084BF0023C2F8E434DFF8AC82A64DA26936
:104F40002AB133680D930D9BDB1B9A4225D3606811
:104F500003685B69434540F0CC8004F013F90028F6
:104F6000C0F2CB80D4F8F434D4F8E424DFF868E25B
:104F70000344072AC4F8F43400F0A880002A69D159
:104F8000FF2800F0898133680C930C9B41F2883133
:104F9000DB1B8B42D3D98EF8F82415B0BDE8F08F17
:104FA000FDF7F4FE84462070002800F0C2818B4B90
:104FB000894C0FCB04F50A7EAEE807002EF8023BC1
:104FC00001211B0C8EF800301420EB234FF00F0949
:104FD0004FF0FF084FF0FE0C84F82312072184F8ED
:104FE0001E0284F8203284F8255284F8265284F870
:104FF000275284F81F5284F822522A4684F82492B9
:1050000084F81C8284F81DC284F8211204F2212342
:1050100004F2362001E013F8011F98420A44FAD145
:10502000DFF8C8816E4DD24384F8372208F11B099E
:10503000FF2106E004F090F9C8453FF460AF18F88E
:10504000011F626813681B68AB420846F2D0104625
:105050009847F1E7012A00F0CB80022A00F0248172
:10506000032A00F02C81042A00F03381052A00F085
:105070004081062A00F04581082A7FF460AF594A32
:105080001A4000239A42C4F8E434C0F2B181FF2AE6
:105090007FF455AFD4F8EC34DFF83CA1002B00F0DE
:1050A0000B830A2B00F0AD81062B00F0EF810B2B58
:1050B00000F0A381BC3355F8230000283FF43FAF34
:1050C00003680AF11C011B68984738E7D5F8F024FB
:1050D000D5F8E834A918013B01320877C5F8F02467
:1050E000C5F8E834002B7FF42AAF0823C4F8E43471
:1050F00025E798470028BFF635AF94F8F8343648CE
:10510000002B3FF44AAFD0F8FC3440F6C412FB1A2F
:1051100093427FF642AFFF23FE21002280F81C322B
:1051200080F81D12F72308250A2180F8203280F824
:10513000232280F8242280F8252280F8262280F875
:10514000272280F8282280F8292280F82A2280F855
:105150001F2280F8222280F81E5280F8211200F2CD
:10516000212300F22A2001E013F8011F83420A44A0
:10517000FAD1DFF878801A4DD24384F82B2208F157
:105180000F09FF2005E004F0E7F8C1450BD018F83F
:10519000010F626813681B68AB420146F3D01046EA
:1051A0009847C145F3D133681193119BC4F8FC743F
:1051B000E36015B0BDE8F08F4C9BFF1F7493FF1F99
:1051C0007093FF1F709AFF1F749AFF1F9499FF1F1F
:1051D000109AFF1F239AFF1F6094FF1FECCB000063
:1051E000A9090000FF000080910700007C96FF1FC6
:1051F000FE287AD095F8F8240023C5F8E434002A74
:105200007FF49DAEFF23FE21082085F81C3285F82F
:105210001D12F7230A2185F8203285F823220EF289
:10522000212385F8242285F8252285F8262285F871
:10523000272285F8282285F8292285F82A2285F850
:105240001F2285F8222285F81E0285F821120EF20F
:105250002A2E01E013F8011F9E450A44FAD1DFF817
:1052600024A2DFF81492D24384F82B220AF10F0B08
:10527000FF2101E01AF8011F626813681B684B45A3
:10528000084640F06F8204F067F8DA45F2D13368DF
:105290000B930B9BE36052E6012207F11403C5F860
:1052A000E424C5F804354AE600220323C5F8E804DF
:1052B000C5F8F404C5F8F024C5F8E4343FE6D5F8A1
:1052C000E83403EB00200423C5F8E804C5F8E4340F
:1052D00035E6664A1A40002AC0F28580FF2A0CBFD4
:1052E00005230023C4F8E43429E60223C5F8E43496
:1052F00025E60623C5F8EC04C5F8F404C5F8E43443
:105300001DE6D5F8EC34D5F8E82403EB002307219B
:10531000C5F8EC34C5F8E414002A3FF4E6AE0EE616
:10532000534CF0E5FFF790FA33680593059B236033
:10533000C5E5504D4E4C0FCD04F50A7EAEE80F008A
:105340000FCDAEE80F000FCDAEE80F0095E80300DB
:1053500036234EF8040B0422C42084F824324FF084
:10536000FF0907234FF0FE083B2584F8232284F829
:1053700025C284F826C284F827C26246AEF800101F
:1053800084F8200284F82132194684F81FC284F878
:1053900022C284F81C9284F81D8284F81E5204F202
:1053A000212304F25D2001E013F8011F83420A4427
:1053B000FAD1DFF8D080304DD34384F85E3208F163
:1053C0004209FF2106E003F0C7FFC8453FF497AD4F
:1053D00018F8011F626813681B68AB420846F2D0D8
:1053E00010469847F1E7013A62F0FF02013275E793
:1053F000013A62F0FF02013249E6002385F8F834F1
:105400009DE533680E930E9BEA68316810911B4945
:10541000286ADFF874C0DDF840909B1AA1FB031ED8
:105420004FEA9E1E4FF47A7184441548EA6901FBE5
:105430001E3300FB03CC114BA3FB093B4FEA9B1B24
:10544000013A01FB1B91724400FB11C3CBEB02023A
:105450000AF114010AF110006B612A6102F004F8EC
:1054600033680F930F9BC5F8003568E5FF00008097
:105470006094FF1FFCCB0000A9090000D34D62100F
:1054800040420F007C96FF1F00CA9A3BD5F81C9043
:10549000D5F81035994507D94FEA8901D5F818058F
:1054A00006F04EFDC5F81805C4F81095B9F1000FC7
:1054B00000F0F080AD4A042102F2145C4FF0000EBF
:1054C00092F8223092F8219092F820001B0443EACF
:1054D000092392F82390034343EA0963C4F814357F
:1054E000D4F81835DCF8000043F82E00D4F8103555
:1054F0000EF1010E7345084602F1040201F10401A8
:10550000DED8029100F10B0100F1080B009100F1CF
:105510000C01D94600F1050E00F1060C00F1070A56
:1055200000F1090300F10A020191A44402999CF8D8
:105530001CC0A64421449EF81C00097FA2444FEAE7
:105540000C4C9AF81CE04CEA002C4CEA010141EAB0
:105550000E6AD4F81C158A450BD94FEA8A01D5F892
:1055600024050392029306F0EBFC039A029BC5F814
:105570002405C4F81CA5BAF1000F00F08880DFF8FC
:10558000F8E105EB09020021937F92F81DC0107F1E
:105590001B0443EA0C2392F81FC0034343EA0C6345
:1055A000C4F82035D4F82435DEF8000043F8210093
:1055B000D4F81C3501318B42484602F1040209F14E
:1055C0000409E1D8C11DCB46431D821D009100F1A5
:1055D000080923442244187F009B117FD4F8282512
:1055E0002344A3449E4609049BF81C309EF81CA04B
:1055F00041EA00210B4343EA0A6A924507D94FEA80
:105600008A01D5F8300506F09BFCC5F83005C4F8D2
:1056100028A5BAF1000F36D0DFF860E100220EF5C0
:10562000A26A944609F11C0B0023A34419461BF8F7
:10563000010B98400833202B41EA0001F7D109F112
:105640000400014481420BD909F11F032344814620
:1056500009F1010993F801B003F801BB4945F7D8F6
:105660006318013883F81BC07044D4F83035C4F88F
:105670002C05DAF8000043F82200D4F8283501326E
:1056800093428946CED8012384F8083557E4DDF8E3
:1056900004909EE70B220C234FF0080B04218DE8A9
:1056A0000C00D9460A2209234FF0070A4FF0060CD6
:1056B0004FF0050E029138E79B460AF223212C4B4E
:1056C000119311A89146CDF848B0CDF84CB0FAF737
:1056D000CDFE0146C1F30722C0B28318DB438AF82E
:1056E0001E02FE258AF820320A204B1C8AF81C92E2
:1056F0008AF822B28AF81F228AF81D528AF82102FB
:10570000C0F2268201F222255B4655440AF221228C
:1057100001E012F8010FAA420344FAD1DB43DBB2E5
:10572000621801F10805B5F5007F82F823320F48B1
:1057300026DC002D26DD01F223210E4D00EB0108B1
:1057400000F21B2903E003F007FEC1451AD062688E
:1057500019F8011F13681B68AB420846F3D01046C6
:105760009847F2E7104698478FE500BF6094FF1F07
:1057700084C80000A90900008099FF1F7C94FF1FC6
:10578000FCF7F6F833680A93D34D0A9BE36005F102
:10579000640655F8043F002B00F0DC8058689A68D6
:1057A00001680092D3F800B08B6898472B68824656
:1057B00058680368DB6898472B68009AD3F8108014
:1057C000B8F1630F814604DD94F8F834002B00F043
:1057D000C180C2F3072384F8232284F82432584678
:1057E00006F0CEFD03464FEA136E020A000C59463E
:1057F00084F8253284F8262284F827021A4684F891
:1058000028E2B648009302F0F1F9504606F0B8FDE0
:10581000009B024603F2292020440633002122FA8D
:1058200001FE0831202900F801EBF8D1AC4804331F
:105830005146184402EB030A02F0D8F9484606F034
:105840009FFD0AF223228346224400232BFA03F110
:105850000833202B02F8011BF8D1A14B0AF1040AEE
:10586000494603EB0A005A4602F0C0F90BEB0A0E58
:105870000EF1040C04EB0E015FFA8CF9CCF3072057
:105880000022022309EB000B81F8243281F8232245
:1058900081F8252281F826226FEA0B0B5FFA88F146
:1058A000FF234FF0FE0A48F30728BCF1FF3F84F8BE
:1058B00020B284F81E9284F81F0284F81C3284F807
:1058C0001DA284F8211284F8228211DBDFF82482E1
:1058D0006FF4087908EB09030EF2262018444346BA
:1058E00001E013F8011F83420A44FAD1D343DBB22B
:1058F00004EB0C020CF1080CBCF5007F82F823329B
:105900001CDCBCF1000F25DDDFF8EC81DFF8ECA139
:105910000EF2272EA8F21B2303EB0E0903E003F07F
:105920001BFDC14516D0626818F8011F13681B687B
:1059300053450846F3D010469847F2E70321694AD9
:10594000694B11928DF848106848139311AA0721EA
:10595000FDF74AF9B5427FF41CAF654BA3F59C6B8C
:1059600056F8040F002800F0E68090E80C00009341
:105970009268D0F808A09047054630680268D2685F
:105980009047814630680268526890476328804695
:10599000009B04DD94F8F824002A00F0CC80C3F3C7
:1059A0000722504684F8233284F8242206F0E8FCCB
:1059B00003464FEA136E020A000C514684F8253262
:1059C00084F8262284F827021A4684F828E24348FD
:1059D000009302F00BF9284606F0D2FC009B03F27C
:1059E000292103F1060A02462144002322FA03F08A
:1059F0000833202B01F8010BF8D1394B0AF1040AC6
:105A000003EB0A002946924402F0F0F8484606F0FB
:105A1000B7FC0AF2232205462244002325FA03F1AB
:105A20000833202B02F8011BF8D12D4B0AF1040A90
:105A3000494603EB0A002A46554402F0D7F805F11F
:105A4000040E61195FFA8EFCCEF3072000220223B8
:105A50000CEB000A81F8243281F8232281F82522F8
:105A600081F826226FEA0A0A5FFA88F1FF234FF0D5
:105A7000FE0948F30728BEF1FF3F84F820A284F80E
:105A80001EC284F81F0284F81C3284F81D9284F828
:105A9000211284F822820BDB05F22620154B584494
:105AA00001E013F8011F83420A44FAD1D343DBB269
:105AB00004EB0E020EF1080EBEF5007F82F82332D1
:105AC0002DDCBEF1000F36DD05F22728DFF82C9023
:105AD000094DD84418E000BF7898FF1F8996FF1F32
